:020000020000FC
:0200000009C035
:100012004BC0F89403E007BB000005B7006205BFC0
:100022000000E0E6F0E004E313E029D00CE212E085
:1000320026D008E311E023D001D0F3CF0F931F9312
:100042002F933F930291129122913291021780F0E5
:1000520009F002C0131760F022913291201728F0A4
:1000620009F008C0311708F005C0C09AC19802C053
:10007200C19AC0983F912F911F910F91089504BB8F
:10008200000017B900000000359A0000339A000002
:10009200379A0000369A0000000000007894889594
:1000A200F8943798000008950F9304B1019305B1B5
:0600B20001930F91189567
:00000001FF
