:020000020000FC
:0200000009C035
:10001400F89403E007BB0000C19A000044D00CE14F
:1000240004BB000007E006B900003D9A0000379ABF
:100034000000E0E6F0E003E05AD002E058D001E02E
:1000440056D002D042D0F5CF0F931F930E2F1F2FFF
:100054000F931F9333D002E413D005E411D002911F
:100064000FD002910DD002910BD005E409D004E425
:1000740007D01F910F91E02FF12F1F910F91089539
:100084001F932F93C1980FD018E0079510F0C198D3
:1000940002C0C19A00C007D01A95B9F7C19A03D01B
:1000A4002F911F9108950F9304EF00000A95E9F72B
:1000B40000000000000000000F9108950F930BE072
:1000C400F2DF0A95E9F70F9108950F931F930291B8
:1000D4001291011738F01291101708F005C0C09A58
:1000E400000002C0C09800001F910F9108951F9353
:1000F40007B900000000369A00000000000036999D
:0A010400FECF15B111931F9108956D
:00000001FF
