:020000020000FC
:0200000009C035
:10001400F89403E007BB0000E0E6F0E003E027D03B
:1000240002E025D001E023D001D0F6CF0F931F9337
:100034002F933F930291129122913291021780F0F3
:1000440009F002C0131760F022913291201728F0B2
:1000540009F008C0311708F005C0C09AC19802C061
:10006400C19AC0983F912F911F910F9108951F93AA
:100074001CE114BB000007B9000000003D9A000019
:10008400379A0000369A00000000000016B1107480
:10009400E9F714B1119315B11193379800001F912A
:0200A4000895BD
:00000001FF
