:020000020000FC
:0200000009C035
:10001400F89403E007BB112708E304BB000001E0E8
:100024000093600024D0509161000CE204BB0000F6
:1000340002E0009360001BD06091610004E304BB04
:10004400000003E00093600012D07091610010FD85
:1000540003C0571720F407C0561708F404C011E072
:10006400C09AC198D9CF1127C19AC098D5CF0F9300
:10007400EF93FF930091600007B900003D9A0000E0
:10008400379A0000369A0000369BFECF3699FECF91
:1000940005B1349A0000E1E6F0E0008337980000EF
:0800A400FF91EF910F91089507
:00000001FF
