:020000020000FC
:0200000009C035
:10001400F89403E007BB112701E0009360001ED0B1
:100024005091610002E00093600018D0609161007B
:1000340003E00093600012D07091610010FD03C0D2
:10004400571720F407C0561708F404C011E0C09AEB
:10005400C198E2CF1127C19AC098DECF0F93EF93D6
:10006400FF930091600007B900003D9A0000379AA1
:100074000000369A0000369BFECF3699FECF05B1BC
:10008400349A0000E1E6F0E0008337980000FF9125
:06009400EF910F910895A9
:00000001FF
