:020000020000FC
:0200000009C035
:1000120050C0F89403E007BB00000FEFC19A000044
:100022000000C1980A95D1F705B7006205BF00002C
:10003200E0E6F0E003E025D002E023D001E021D0A9
:1000420001D0F6CF0F931F932F933F9302911291FA
:1000520022913291021778F009F002C0131758F07A
:1000620022913291201728F009F006C0311708F0CA
:1000720003C0C09A01C0C0983F912F911F910F9168
:1000820008951F931CE114BB000007B90000000093
:100092003D9A0000339A0000379A0000369A000019
:1000A2000000000078948895F894379800001F911A
:1000B20008950F930FB71F9314B1119315B11193B4
:0800C2001F910FBF0F9118956B
:00000001FF
