:020000020000FC
:0200000009C035
:10001400F89403E007BB08E304BB000001E000938D
:1000240060001FD0509161000CE204BB000002E0AC
:100034000093600016D06091610004E304BB0000EB
:1000440003E0009360000DD070916100651730F4F7
:10005400571708F400F7C09AC198DDCFC19AC09829
:10006400DACF0F93EF93FF930091600007B900007C
:100074003D9A0000379A0000369A00000000000004
:100084003699FECF05B1349A0000E1E6F0E0008332
:0C00940037980000FF91EF910F91089544
:00000001FF
